:020000040000fa
:080000000002040000000000f2
:020000040000fa
:1000080012030000e2020000e8020000ee02000015
:10001800f4020000120300001203000012030000a3
:10002800120300001604000016030000120300006b
:100038005603000012030000120300001203000020
:100048001203000012030000120300001203000054
:10005800120300002a030000b60300001203000088
:100068001203000012030000120300001203000034
:100078001203000012030000120300001203000024
:100088001203000012030000120300001203000014
:100098001203000012030000120300001203000004
:1000a80012030000120300001203000012030000f4
:1000b80012030000120300001203000012030000e4
:1000c80012030000120300001203000012030000d4
:1000d80012030000120300001203000012030000c4
:1000e80012030000120300001203000012030000b4
:1000f80012030000120300001203000012030000a4
:100108001203000012030000120300001203000093
:100118001203000012030000120300001203000083
:100128001203000012030000120300001203000073
:100138001203000012030000120300001203000063
:100148001203000012030000120300001203000053
:100158001203000012030000120300001203000043
:100168001203000012030000120300001203000033
:1001780012030000120300000e0d0000120300001d
:100188001203000012030000120300001203000013
:100198001203000012030000120300001203000003
:1001a80012030000120300001203000012030000f3
:1001b80012030000120300001203000012030000e3
:1001c80012030000120300001203000012030000d3
:1001d80012030000120300001203000012030000c3
:1001e80012030000120300001203000012030000b3
:0801f8001203000012030000d5
:020000040000fa
:1002080012030000fa0200000003000006030000c9
:100218000c03000012030000120300001203000088
:100228001203000016040000160300001203000069
:10023800560300001203000012030000120300001e
:100248001203000012030000120300001203000052
:10025800120300002a030000b60300001203000086
:100268001203000012030000120300001203000032
:100278001203000012030000120300001203000022
:100288001203000012030000120300001203000012
:100298001203000012030000120300001203000002
:1002a80012030000120300001203000012030000f2
:1002b80012030000120300001203000012030000e2
:1002c80012030000120300001203000012030000d2
:1002d80012030000120300001203000012030000c2
:1002e80012030000120300001203000012030000b2
:1002f80012030000120300001203000012030000a2
:100308001203000012030000120300001203000091
:100318001203000012030000120300001203000081
:100328001203000012030000120300001203000071
:100338001203000012030000120300001203000061
:100348001203000012030000120300001203000051
:100358001203000012030000120300001203000041
:100368001203000012030000120300001203000031
:1003780012030000120300000e0d0000120300001b
:100388001203000012030000120300001203000011
:100398001203000012030000120300001203000001
:1003a80012030000120300001203000012030000f1
:1003b80012030000120300001203000012030000e1
:1003c80012030000120300001203000012030000d1
:1003d80012030000120300001203000012030000c1
:1003e80012030000120300001203000012030000b1
:0803f8001203000012030000d3
:020000040000fa
:100400000f2321000e7f21000e0188000000000054
:10041000000020000000e000020032000001200087
:10042000200288000c000700c0f12300010020001a
:100430000f000700000020000000e0000200320072
:100440000000020000000000ca400200000000009e
:100450000040da000000fe00002a20000000e0005a
:1004600002003200002020009001880000000600f9
:10047000a1028800800078000000eb001a0037001d
:10048000e280400054a0b4009101ba00e280400034
:1004900054a0b4009102ba00e280400054a0b4001d
:1004a0000002eb00472bde00f507b200a601880032
:1004b000602ce10008003a000049eb000201e8006e
:1004c000020039003420ec0002f0a0008301e900b2
:1004d000f9ff3e00040037006128e100010032000e
:1004e0000082eb00040007001101ba000200e000e6
:1004f000e3ff3a000000060004d0a300e20f490029
:100500001c003900810278003549ba000201e80078
:10051000020039003420ec0002f0a0008301e90061
:100520000f0032002549ba000201e800020039003c
:100530003420ec0002f0a0008301e9000800320042
:100540000400e0000600320015c9ba000201e8000c
:10055000020039003420ec0002f0a0008301e90021
:100560008180e80054a0b4000300e000e2ff3a00fc
:10057000000006009102ba00055978008301e900e5
:10058000f7ff3200c82ade00055978008301e90030
:10059000f3ff32000400e000f1ff320011d9ba008d
:1005a000eeff3700601d0400000000005a40040008
:1005b00000000000523e040000000000ae400400b5
:1005c000000000000000fa008020a900ffff3700b3
:1005d0000000fa008060a900ffff37000000fa0069
:1005e0008040a900ffff37000000fa008080a900ca
:1005f000ffff37000000fa008020a900ffff37004e
:100600000000fa008060a900ffff37000000fa0038
:100610008040a900ffff37000000fa008080a90099
:10062000ffff37000000fa00ffff37003200f8003c
:10063000881f780008202000980188004f04780067
:100640000000fa008440a9000080fa003200f9009e
:1006500000400600849fbe00861f78000000fa005c
:100660004459800004427800614262000482fb0029
:10067000610262004e22dd0066168000f5ff2b004d
:1006800085026300050272006416880044598000e8
:100690000400a2004459880085a0a9000080fa0047
:1006a0004f0378004f02be0000400600849fbe004a
:1006b000861f78000000fa008480a900551c800085
:1006c0000402200004826200e00f52002300320086
:1006d0008aa3a90044468000044278006142620077
:1006e0000482fb00610262004d22dd00661680007c
:1006f000f5ff2d0085026300050272006416880074
:10070000444680000400a20044468800748c8000a7
:100710000404b000748c8800758c80000480200074
:10072000848f520009003200758c80000400210083
:10073000848f520005003a000002eb00748c8800a0
:100740001de5a90014002000948c8800758c8000a1
:100750000480210004824200741c88000080fa009a
:100760004f0378004f02be0000400600849fbe0089
:10077000861f78000000fa0085c0a900a51c800033
:100780000402200004826200e00f520023003200c5
:1007900094a3a900444680000442780061426200ac
:1007a0000482fb00610262004322dd0046168000e5
:1007b00075ff2f0085026300050272004416880051
:1007c000444680000400a20044468800748c8000e7
:1007d0000402b000748c8800758c800004802000b6
:1007e000848f520009003200758c800004002100c3
:1007f000848f520005003a000002eb00748c8800e0
:100800001de5a90014002000948c8800758c8000e0
:100810000480210004824200741c88000080fa00d9
:100820004f0378004f02be0000400600801f780092
:10083000829fbe00849fbe00869fbe000400fa0017
:100840008420a900e48c8000e00f520004003200f4
:100850004ac1a80042c1a8000002eb00e48c880055
:10086000848c8000e00f52000d003200840c800068
:100870000400a0000410a1000420a000840c880043
:100880001dc5a8001dc5a9000002eb00748c8800de
:100890001de5a8000002eb00848c8800cdc2a800f2
:1008a000640a800005002000048fbe001e02be0006
:1008b000c023dd0006002000240a8000050020007f
:1008c000041f730005977300165980002459800097
:1008d000355980003e011200ae811a000202be00ae
:1008e0004230dd002799200087034000848bbe0042
:1008f0000602e800145988001e02be002459880030
:10090000355988001559800044062000848f520014
:1009100002003a000002eb00145988000080fa003f
:100920004f03be004f02be004f01be004f007800d3
:10093000004006000a00fa00e20f500022003e00cc
:10094000748e8000e10f52000600320087232000e1
:10095000462320002423200005232000e08f53009d
:1009600004003a0087222000462220002422200092
:1009700005222000000028001500600003003a0056
:10098000800b780007002800958a7300054020003e
:100990009482620001003a0014a0a0008202780054
:1009a00006003700940378000710b200fdff320004
:1009b000b103fb00070b78008502e900e08f5200cd
:1009c000f8ff3a000800370034002000c0bf9f0045
:1009d000e2bf9f00b4bf9f00d1bf9f006a80570055
:1009e000230207006fb99700020078000080fa0028
:1009f000000006000000fa00000000003410800033
:100a000061026200e00f5200fcff3a0034108000e7
:100a100062026200e00f5200f8ff3a0034108000da
:100a200064026200e00f5200f4ff3a0034108000cc
:100a300068026200e00f5200f0ff3a0034108000bc
:100a400070026200e00f5200ecff3a004510800097
:100a50000400240004826200e00f5200e7ff3a0025
:100a60000080fa00000006000800fa001007980055
:100a700021079800320798000002eb00040f78006d
:100a8000270037000662a800080037009e027800a1
:100a90003e029000848f5200020031001e0fe800d9
:100aa000020037001e029000210037002a010700d3
:100ab00000427800e04f5200f4ff32000002eb00e9
:100ac000040f780004108000844278002e02900009
:100ad000054a78002e0290000402e80024079800de
:100ae0001e0290000402e900140798001e02900004
:100af000e00f520003003a0006a2a8000682a800f8
:100b00000300370006a2a9000682a800000000002a
:100b10003410800070026200e00f5200fcff3a00c7
:100b20001e029000e00f5200d6ff3a000002eb00d8
:100b3000040078000080fa00000006000200fa00bd
:100b4000004f78009e4278000582fb001410880058
:100b5000451080000408200004826200e00f52006b
:100b60000200320000c2eb00010037000042eb003f
:100b7000044078000080fa00000006000000fa003f
:100b80000602a8000080fa00000006000000fa003b
:100b90000642a8000080fa00000006000000fa00eb
:100ba000143a8000040378000610a00064042000ba
:100bb0007505200027742000844b7800854b780051
:100bc000864b78000002eb0034318800353180001c
:100bd0000400280004826200e00f52000700320087
:100be000353180000400220004826200e00f5200d0
:100bf00001003a00b100070027e6a90027a6a900d6
:100c00000080fa00000006001200fa00000f9800b1
:100c100035318000f4cf2f00048262003431880027
:100c20003531800004102000050272003431880044
:100c30002431800024079800243180003407980074
:100c400035318000f4cf2f000482620034318800f7
:100c50003531800004102000050272003431880014
:100c600024318000640798002431800074079800c4
:100c7000ee4290006e4a900084cf5200e4ff3a00aa
:100c8000ce4290000e0a900035429800fe4290003d
:100c90000e0a900025429800ee4290000e0a900045
:100ca000154298000080fa00000006001400fa00c7
:100cb000000f9800110f98000002eb001407980035
:100cc0000e0a9000a442900094c5b30084cf520055
:100cd0000a003e000e0a90009442900094c5b300b2
:100ce00084cf520005003e000e0a9000b4429000ee
:100cf00044c2b30084cf5200020036000002eb0071
:100d00006b0037000e0a900024429000744f980048
:100d10000e0a900014429000644f98001e0a900042
:100d2000e00f52000e003200140280004522de0067
:100d300067426200044f7800940280002407980004
:100d4000ff3ffc00140280000450a0000460a000db
:100d50000470a000140288002e0290009402880003
:100d6000343180004d22de00614262000482fb00cb
:100d7000340798003e029000e00f520001003a0054
:100d80004e000700343180004f22de00044278001c
:100d90000482fb00440798004e029000e00f5200ce
:100da00006003200143180004f22de000442780039
:100db0000482fb001407980027e6a9003531800063
:100dc000f4cf2f0004826200343188003531800076
:100dd00004102000050272003431880024318000a4
:100de000640798000e0a900034429000444f980027
:100df00035318000f4cf2f00048262003431880046
:100e00003531800004102000050272003431880062
:100e10006e029000243188007e0290002431880008
:100e20004e029000e00f52000a00320027e6a800b0
:100e30001e029000e00f52000100320023e6a800dd
:100e40003e029000e00f5200060032001b00070037
:100e5000040037003e029000e00f520001003a000b
:100e600027a6a9001e0a9000e00f52000f003200d2
:100e70009402800054079800ff3ffc009e427800d7
:100e800067c262000482fb00670262004522dd0047
:100e900016028000f5f12f00850263000502720042
:100ea000140288005e029000940288001400200062
:100eb000040078000080fa00000006000600fa0036
:100ec000881f7800140280004522de00674262001d
:100ed000044f78009402800014079800ff3ffc0044
:100ee000140280000450a0000460a0000470a00060
:100ef000140288001e029000940288005805200009
:100f0000383b8800a80a2000383b880027a6a800a4
:100f10009402800024079800ff3ffc009e42780066
:100f200067c262000482fb00670262004522dd00a6
:100f300016028000f5f12f008502630005027200a1
:100f4000140288002e029000940288004f0478005a
:100f50000080fa00000006000000fa004410800043
:100f60000402d10061426200044078000080fa006f
:100f7000000006006022b800060220000000d00039
:100f80008180d2000482d2008582d2000000a000bd
:100f90000202520083825a00030031000202420022
:100fa00083824a000000a1000603e900f3ff3a0033
:100fb00000000600efff07000400be00000006006e
:100fc0000002780002003700015a78000201e900af
:100fd000e00f5100fcff3a0000000600889fbe00b1
:100fe0000004be00050037000000fb008900780007
:100ff00019000700e10f400004003200384078007b
:10100000e04f5000f8ff3a000000eb004f04be0034
:1010100000000600e11a2100881f7800efff07009a
:10102000e11a210000047800a00020000a00070057
:10103000080078004f0478000000060000027800e5
:101040008042eb00b4cf1200fdff3a000080ea00be
:101050000000420000000600889fbe0001047800e6
:101060008084eb0038029000e20262003b00320014
:1010700004037800980290000620b20002003a00b3
:10108000e08f520035003a000490a0008004780000
:1010900034049800f90fb200e08f520002003a00c9
:1010a000a8029000050c7800ea8f540005003a0071
:1010b0000408b20003003a0088007800d000200045
:1010c000e5ff070018029000d8029000850f52003b
:1010d0000b0032000402e80015c0b30014049800ad
:1010e00018027800094a7800040ce800841c2100ea
:1010f000054a7800ea8f540018003a0005003700ce
:101100000940780088007800170007008004780004
:1011100012003700380290000410b2000f003200b5
:1011200018019000a80090004800900001fe070000
:1011300018029000840f5000040032003802900022
:101140000403b300340498008084eb000002eb0039
:101150001404980028029000040c7800090078001c
:101160004f04be00000006000200fa00889fbe0087
:1011700001047800a0ff9f003802900084027800ec
:101180000504b200020032000000fb003500370009
:10119000e202620005003a000403b300150498005f
:1011a000340498000080eb002e003700d804900033
:1011b000e08f540006003a0012002000e68057003d
:1011c00048009000dbfd0700190498002300370059
:1011d000a8029000e08f520008003a00c51c2100d0
:1011e0000430a00025049800050c78003404980011
:1011f000250020005504980015049800180190005f
:10120000a800900048009000cafd07002802900046
:101210008082eb0015049800affa9700054a780029
:10122000040ce8002ffa9700ea4f52000b003a0036
:10123000380290000410b20008003200180190003b
:10124000a800900048009000bafd07000002eb00e3
:10125000a802900014049800050c78002ffa97005b
:101260000400fb004f04be000080fa0000000600ee
:0812700000c0da0000000600d6
:020000040000fa
:10127800686500006c70000000640000697300007d
:10128800706c00006179000020680000656c000047
:10129800700000003c630000723e0000000a00007d
:1012a8000d0000003f20000020200000202000004a
:1012b80020200000202000002020000020640000e2
:1012c80069730000706c00006179000020680000fc
:1012d800656c0000702000006f6e00002067000041
:1012e80069760000656e0000206f00007220000023
:1012f80061760000616900006c610000626c0000aa
:1013080065200000636f00006d6d0000616e0000d5
:10131800647300000a0000003c54000041420000d1
:101328003e20000020200000202000002020000097
:1013380020610000757400006f2d0000636f0000cd
:101348006d7000006c650000746900006f6e00002d
:101358000a0000003c630000723e000020200000ec
:101368002020000020200000202000002065000030
:101378007865000063750000746500002063000054
:101388006f6d00006d6100006e640000206c00004d
:10139800696e0000650a0000004300005452000016
:1013a8004c2d0000502000002020000020200000cc
:1013b8002020000072650000636100006c6c000072
:1013c8002070000072650000766900006f750000eb
:1013d80073200000696e0000707500007420000022
:1013e8006c6900006e6500000a00000043540000ac
:1013f800524c00002d4e000020200000202000004c
:10140800202000002072000065630000616c00006d
:101418006c2000006e6500007874000020690000f0
:101428006e70000075740000206c0000696e00008a
:10143800650a0000003c0000616e0000793e000073
:101448002020000020200000202000002020000094
:101458007472000065610000742000006173000070
:10146800206900006e7000007574000020630000a1
:10147800686100007261000063740000657200001a
:101488000a000000616d00006269000067750000d5
:1014980069740000793a0000200000006e6f0000b7
:1014a800206d000061740000636800003a200000ad
:1014b800003a0000200000006e6f00002068000065
:1014c800656c000070200000617600006169000012
:1014d8006c610000626c0000650000000a61000099
:1014e8006d6200006967000075690000747900008a
:1014f8003a200000000a00006e6f0000206d000016
:1015080061740000636800003a200000003e00009b
:101518002000000008200000080000001201000060
:10152800000200000200000000080000d8040000cb
:101538000a00000000010000010200000001000094
:1015480009020000430000000201000000c0000082
:10155800320900000400000000010000020200003f
:101568000100000005240000001000000104000034
:10157800240200000205000024060000000100000b
:10158800052400000100000001070000058100009b
:101598000308000000020000090400000100000028
:1015a800020a000000000000000700000502000019
:1015b8000240000000000000070500008202000051
:1015c80040000000000000000403000009040000bf
:1015d800340300004d0000006900000063000000b3
:1015e800720000006f000000630000006800000047
:1015f8006900000070000000200000005400000096
:101608006500000063000000680000006e00000034
:101618006f0000006c0000006f0000006700000011
:101628007900000020000000490000006e00000062
:10163800630000002e000000340300004300000097
:101648004400000043000000200000005200000099
:10165800530000002d00000032000000330000009d
:101668003200000020000000450000006d0000006e
:10167800750000006c0000006100000074000000ac
:10168800690000006f0000006e00000020000000ec
:1016980044000000650000006d0000006f000000bd
:1016a800a48a0000e88a0000ec8a0000208b000071
:1016b8007465000073740000007400006573000016
:1016c80074200000636f00006d6d0000616e000003
:1016d800640000005b61000072670000735d000039
:1016e8000072000074630000720000007265000060
:1016f800736500007420000072740000630000002d
:1017080061640000637300000073000074610000ee
:101718007274000020610000646300000000000093
:10172800746900006d650000207200006573000098
:1017380065740000656400000a0d0000000a0000de
:101748000d00000025300000327800003a25000026
:1017580030320000783a000025300000327800006e
:101768000a0d00000000000025300000386c000061
:10177800583a0000002000002530000032580000d0
:101788000020000025300000345800000020000030
:1017980025300000384c00005800000025300000bb
:1017a80034750000202000000a0d00000000000031
:020000040000fa
:1017b8000200fa009ec0a9000082eb007424880091
:1017c8000082eb00542488000002eb0054258800b6
:1017d800420020008000eb00c04a2000f6fd070010
:1017e80024002000342588000002eb0044258800ee
:1017f8008644a900f409200084248800f409200004
:10180800642488008804a800042021004822de00ff
:10181800c42488000042eb00044f78000800370019
:101828009e4278000582fb00c222dd0004202100d0
:10183800048342006022b800048bbe001e4fe800fb
:101848001e427800eb4f5200f5ff36009424a800a2
:101858000002eb00b424880094a4a9009424a900f1
:101868001600370084002000542488000042eb0052
:1018780084427800c60c2100054b78000042eb003a
:1018880084427800260d2100054b7800340d210094
:10189800144278006042620084427800360d2100cc
:1018a800054b7800440d2100144278006042620024
:1018b80084427800460d2100054b780054248000ae
:1018c80068026200e00f5200e6ff3a0014c0b3005d
:1018d80084427800760e2100054b780014c0b300ce
:1018e80084427800860e2100054b78000042eb0008
:1018f80084427800960e2100054b78000042eb00e8
:1019080084427800a60e2100054b78000042eb00c7
:1019180084427800b60d2100054b78000042eb00a8
:10192800044f78001b0037001e4378000682fb0036
:1019380084024200240c2100048242008002eb0051
:10194800050a78009e4278000582fb008402420066
:10195800c40b2100048242008002eb00050a7800d3
:101968001e4378008682fb00f40d210004824200a9
:101978008042eb00054a78001e4278008482fb0012
:10198800240e2100048242008042eb00054a7800c0
:101998001e4fe8001e427800e24f5200e2ff360078
:1019a8008420210014868800d40020005425880053
:1019b800b40e21001490880084c0b300044378005a
:1019c80005202100864a780044c0b300044378000b
:1019d80015202100864a78001520210095427800bc
:1019e80004c8b30004c27200044378001520210023
:1019f800864a78000042eb0004437800450b21003a
:101a0800864a78000002eb00948588000080fa007e
:101a1800000006003600f800809fbe00829fbe00ce
:101a2800849fbe00869fbe003200f8000020200080
:101a3800900188000200fa0094858000e10f5200ae
:101a48000b003a00a52480000404200004826200f0
:101a5800e00f520006003a000082eb005424880090
:101a68008c04a8008c84a800240020009485880099
:101a78000424800070026200e00f52000700320068
:101a88001424800070026200e00f5200030032004c
:101a98000401200004248800440507004424800031
:101aa80062026200e00f5200020032008ec0a900fc
:101ab800ab0037005424800061026200e00f52003e
:101ac8000a0032006424800061026200e00f5200c4
:101ad8000600320036ff07009ec0a8004400200020
:101ae8009485880014002000542488005424800021
:101af80070026200e00f5200070032006424800088
:101b080070026200e00f520003003200190507005e
:101b180004012000542488005424800064026200d8
:101b2800e00f520019003200642480006402620051
:101b3800e00f520004003200120020008000eb0089
:101b480030072000f81707004400200054248800bc
:101b5800540e210014427800e04f52000600320073
:101b6800540e2100144278000442e900044378002e
:101b7800550e2100864a7800540e21001442780040
:101b8800e04f520001003a00c601070055248000ca
:101b98000408200004826200e00f520006003200b0
:101ba800652480000408200004826200e00f5200cf
:101bb80001003200d204070054248000620262004f
:101bc800e00f52000c0032006424800062026200c0
:101bd800e00f520008003200120020008000eb00e5
:101be800f0ff2700d01707000082eb00742488005c
:101bf800240020005424880094858000e30f5200bc
:101c080002003e008ec0a900550037006424800001
:101c180068026200e00f5200500032000042eb0000
:101c2800044f78004800370054248000680262009e
:101c3800e00f5200480032009424800004427800eb
:101c480004437800c50d2100864a7800c40d2100a0
:101c5800144278000482fb004422de00044278002b
:101c680004437800d50d2100864a780084002000be
:101c780054248800c40d2100144278006842620090
:101c8800e04f520013003a00d40d210014427800ae
:101c98000483fb008482fb00240e2100048242009e
:101ca8009442780061c262000404a200e14262002a
:101cb800240e210004024300e1c26200944378002c
:101cc800e6cfb30006c3630085427300054a780077
:101cd80012003700d40d2100144278000483fb0061
:101ce8008482fb00f40d21000482420094427800b3
:101cf80061c262000404a200e1426200f40d210006
:101d080004024300e1c2620094437800e6cfb300c6
:101d180006c3630085427300054a7800d40d21008c
:101d280014427800e04f520002003a00ad04070068
:101d3800040037000001eb00c10d2100200720003e
:101d4800791707001e4fe8001e427800e34f520043
:101d5800b5ff360001003700000000008ec0a90062
:101d68000080fa003200f9004f03be004f02be00a7
:101d78004f01be004f00be003600f90000400600cb
:101d88000400fa0020479800314798003e4290002e
:101d98000482fb0068026200e00f52000300320078
:101da8008040eb002e409000c90107003e429000a1
:101db8000482fb0064026200e00f5200030032005c
:101dc80011c0b3002e409000c1010700a54a2000b1
:101dd8002e4290000482fb0004024200048f42005d
:101de8001e027800be429000054a78000080fa0082
:101df800000006000800fa002047980031479800c4
:101e080022079800634798003e429000e04f520036
:101e1800070032002e4290000482fb008402420038
:101e2800240c210004824200140f780006003700b9
:101e38002e4290000482fb0084024200c40b210061
:101e480004824200140f78001e027800e00f52004e
:101e580002003a000002eb0037003700ae029000a3
:101e68001e027800150298001e027800ee429000cb
:101e7800054a78001e0278001442900006c4b30098
:101e8800864262001e027800154298001e02780001
:101e980014429000844278000534a0001e027800a5
:101ea800154298001e0278009442900004c8b300be
:101eb80084c272001e027800154298003e429000cb
:101ec800e04f52000e003200250c21002e429000f7
:101ed8000482fb000402420084824200260c210096
:101ee8002e4290000482fb000402420004024300d8
:101ef800144278000424a200844a78000d003700b8
:101f0800c50b21002e4290000482fb00040242000f
:101f180084824200c60b21002e4290000482fb00fe
:101f28000402420004024300144278000424a20080
:101f3800844a78001e027800040078000080fa00c5
:101f4800000006000400fa00204798003147980076
:101f58002e429000e04f520019003a00d4858000cc
:101f680085c0b300054a7800d4858000b50e2100ed
:101f780015029800d4858000c5c0b30015429800aa
:101f8800d4858000d58580001543900005c8b3002e
:101f980085427300154298001486800045c0b3003e
:101fa800154298001486800015868000154390001d
:101fb80005c8b30085427300154298002e0037000b
:101fc8002e4290000482fb00040242008402780042
:101fd8003e4290000482fb00048242004322dd005e
:101fe8008402780004202100048f42001e02780039
:101ff80014429000844278000524a0001e02780054
:10200800154298001e0278009442900004c8b3005c
:1020180084c272001e027800154298002e42900079
:102028000482fb0004024200840278003e429000d1
:102038000482fb00048242004322dd00e4024200e5
:1020480004202100048f42001e02780014429000f0
:10205800844278000524a0001e02780015429800ea
:102068001e0278009442900004c8b30084c2720033
:102078001e027800154298000080fa000000060051
:102088000200fa00004f7800a52480000402200016
:1020980004826200e00f52005b0032009e4278002a
:1020a8000582fb0084024200240c210004824200c5
:1020b800140078001e4378000682fb008402420068
:1020c800240c210004824200140278001403be008c
:1020d800040420000500200086007800070378002b
:1020e800840378000502780087806000040263009a
:1020f80005002000c022dd00040020000403be000b
:10210800610ab80004037300858373000688be0063
:102118009e4378000782fb0084024200240c2100c1
:1021280004824200140078009e4278000582fb0079
:1021380084024200240c2100048242001402780028
:102148001403be00040420000500200004026b00f4
:1021580085826b000488be00250c21001e43780090
:102168000682fb000402420084824200260c210001
:102178009e4378000782fb000402420004024300e9
:10218800144278000424a200844a78009e42780011
:102198000582fb0084024200240c210004824200d4
:1021a800940278001e4378000682fb000403420074
:1021b800240c210004024300140278001442900009
:1021c8000444b200944298009e4378000782fb00c2
:1021d80084024200240c2100048242009402780008
:1021e8001e4378000682fb0004034200240c2100f1
:1021f80004024300140278001443900004c4b3009e
:1022080004426b00944298000080fa000000060027
:102218000000fa000002eb00a42488000002eb0092
:10222800642488000002eb00948588000080fa008e
:10223800000006000000fa0094858000e00f5200bc
:1022480016003a000002eb00a42488000002eb000c
:102258006424880024002000342588000002eb0054
:10226800442588008644a900f409200084248800b5
:10227800f4092000642488009ec0a80001003700eb
:102288009404a800a424800061026200e00f5200b8
:10229800fbff320014002000948588000080fa00bb
:1022a800000006000000fa00740e210014427800b5
:1022b8000404a200e04f52004200320014c0b300f0
:1022c80004437800750e2100864a7800840e2100a8
:1022d800144278000404a200e04f52003900320092
:1022e80014c0b30004437800850e2100864a7800a4
:1022f800940c210014427800e24f52000d003a007d
:10230800148680008042eb00054a7800148680001d
:1023180085c4b30015429800148680001586800095
:102328001543900005c8b300854273001542980014
:1023380024003700940c210014427800e14f520029
:1023480020003a000042eb0004437800e50d21002c
:10235800864a7800c485800085c0b300054a7800a5
:10236800c4858000b50e210015029800c485800040
:1023780045c0b30015429800c4858000c58580001b
:102388001543900005c8b3008542730015429800b4
:1023980014c0b30004437800e50d2100864a780094
:1023a800d485800085c0b300054a7800d4858000b4
:1023b800b50e210015029800d485800005c8b30029
:1023c800154298000080fa00000006000000fa009c
:1023d8000042eb0004437800950e2100864a7800fd
:1023e8000042eb0004437800a50e2100864a7800dd
:1023f800940c210014427800e24f520010003a0079
:10240800d485800085c0b300054a7800d485800053
:10241800350f210015029800d485800085c4b300cb
:1024280015429800d4858000d5858000154390001a
:1024380005c8b30085427300154298002200370092
:10244800140f2100144278000482fb00250f21009c
:10245800954278008582fb00c82add0005027200db
:102468008402780074868000848f5200090031004d
:10247800140f2100144278000482fb00250f21006c
:10248800954278008582fb00c82add0005027200ab
:1024980074868800b600070014868000350f210076
:1024a800150298001486800085c4b3001542980070
:1024b80014868000158680001543900005c8b30077
:1024c80085427300154298000080fa00000006005b
:1024d8000400fa00204798003147980004202100a2
:1024e800040f78002e4290000482fb000402420090
:1024f800840278003e4290000482fb00048242007d
:102508004322dd001e0f42009e027800150278006b
:1025180004f0a100840a78003e429000e04f520087
:1025280007003a002e4290000482fb008402420019
:10253800c40b2100048242001e0a780006003700fe
:102548002e4290000482fb0084024200240c2100e9
:10255800048242001e0a78009e0278001502780064
:1025680004e0a100840a78001e027800e402420018
:102578001502780004e0a000840a78000080fa00c0
:10258800000006000000fa0094a4a90065868000f7
:102598000408200004826200e00f520032003a0072
:1025a800250d21009542780004c8b30004c26200da
:1025b800e04f52001300320024c0b30004437800f7
:1025c800950c2100864a7800a40e21001442780058
:1025d8000404a200e04f5200010032007bff070014
:1025e8000042eb0004437800850e2100864a7800fb
:1025f8000042eb0004437800750e2100864a7800fb
:1026080059003700d485800085c0b300054a78009a
:10261800d4858000b50e210015029800d48580006d
:10262800c5c0b30015429800d4858000d5858000c8
:102638001543900005c8b300854273001542980001
:102648001486800045c0b3001542980014868000a7
:10265800158680001543900005c8b30085427300b5
:102668001542980040003700b50e210095427800c9
:1026780004c8b30004c26200e04f520019003200df
:1026880014c0b30004437800950c2100864a7800f2
:10269800940e2100144278000404a200e04f520076
:1026a8000100320049ff07000042eb0004437800b4
:1026b800850e2100864a78000042eb00044378002a
:1026c800750e2100864a7800640e210014427800b5
:1026d8000404a200e04f520023003200f1fe07007c
:1026e8002100370024c0b30004437800950c210072
:1026f800864a7800d485800085c0b300054a7800f2
:10270800d4858000b50e210015029800d48580007c
:1027180045c0b30015429800d4858000d585800057
:102728001543900005c8b300854273001542980010
:102738000042eb0004437800850e2100864a7800a9
:102748000042eb0004437800750e2100864a7800a9
:10275800640e2100144278000404a200e04f5200e5
:1027680001003200cffe07000080fa0000000600da
:102778000200fa0084c0b300044f78007486800019
:10278800e70f520013003e0074868000044f780063
:10279800840c210014427800e04f520005003a00f2
:1027a80014c0b30004437800850c2100864a7800e1
:1027b80008003700840c210014427800e14f5200d1
:1027c80004003a0024c0b30004437800850c2100bb
:1027d800864a7800758680001e4378000682fb00d2
:1027e8000482520074868800148680001e4a78008d
:1027f800340f2100c486880064868000610262006c
:10280800e00f520017003a0009003700c586800023
:102818005486800014437800864a78008502e800d0
:10282800c58688000402e800548688001e4fe90027
:102838001e427800e04f5200f4ff3a000c003700c7
:10284800c58680005486800014437800864a780044
:102858008502e800c58688000402e80054868800de
:102868001e4fe9001e427800e04f5200f4ff3a0084
:102878000080fa00000006000200fa00c48580000b
:10288800144f78001e4278008482fb00340d21002a
:10289800144278000482fb00460d2100164378009c
:1028a8000683fb004833dd0006027200848f520065
:1028b80009003600340d2100144278000482fb0020
:1028c800450d2100954278008582fb00c82add006d
:1028d80005027200044f7800340d2100144278007c
:1028e8000482fb00450d2100954278008582fb009b
:1028f800c82add0005027200840278001e437800b1
:102908000682fb0004825200f50f20008502620057
:10291800360d21001643780060436300854273003a
:1029280005437800370d2100864b78004822de00e9
:10293800450d210095427800e0c2620004c2720091
:1029480084427800470d2100854b78000042eb0057
:102958001447980023003700040d21001442780022
:102968000482fb00150d2100954278008582fb004a
:10297800c82add00050272009e4290000583fb0014
:10298800350f21008502430095427800054a7800fa
:102998000402e800f50f200085026200060d210000
:1029a80016437800604363008542730085437800ce
:1029b800060d2100074b78004822de00150d210086
:1029c80095427800e0c2620004c2720004437800b5
:1029d800150d2100864a78001e4290000442e80046
:1029e800144798001e4290009e4f5200daff3900ab
:1029f800340d2100144278000482fb00450d2100ab
:102a0800954278008582fb00c82add000502720025
:102a1800e00f520020003200d485800085c0b3004a
:102a2800054a7800d4858000350f210015029800ea
:102a3800c4858000940278000400240004826200a7
:102a4800e00f52000a003a00d485800085c4b30024
:102a580015429800d4858000d585800015439000e4
:102a680005c8b3008542730015429800330037004b
:102a7800d485800085c0b30015429800d4858000b5
:102a8800d58580001543900005c8b30085427300c2
:102a98001542980029003700d485800085c0b3000e
:102aa800054a7800d4858000b50e210015029800eb
:102ab800d485800045c0b30015429800d4858000b5
:102ac800d58580001543900005c8b3008542730082
:102ad80015429800540d2100144278000482fb002e
:102ae800650d2100954278008582fb00c82add002b
:102af80005027200e00f520009003200540d210057
:102b0800144278000482fb00650d2100954278008c
:102b18008582fb00c82add0005027200040001005e
:102b2800d2f0a900640e2100144278000404a20027
:102b3800e04f520001003200dafd07000080fa0081
:102b4800000006000200fa00ccf0a80042002000b5
:102b58008000eb00c04a200017f90700020320009c
:102b68008000eb000020210013f907009424a8003e
:102b78000042eb00044f78000d0037001e42780039
:102b88008482fb00f40d2100048242008042eb00a5
:102b9800054a78001e4378008682fb00240e210037
:102ba800048242008042eb00054a78001e4fe8008c
:102bb8001e427800e24f5200f0ff3600220020004b
:102bc8008000eb00500b2100fbf807009424a900bb
:102bd800842021001486880004202100c4858800f0
:102be800c4858000d4858800d40e21001442780062
:102bf80004437800450b2100864a7800440b2100e5
:102c080014427800e04f520003003a00040120000b
:102c1800948588000600370012002000410b21002f
:102c280010002000c01307000402200094858800cb
:102c38000080fa00000006000000fa00b50e21002e
:102c48009542780004c8b30084cf52004d003a0082
:102c580004ccb30004437800c50c2100864a7800f0
:102c6800e40e2100144278000482fb00e20f5200b7
:102c780009003200e30f520026003200e10f520033
:102c88003b003a0024a9280054868800240120002b
:102c9800748688003b003700d40e21001442780067
:102ca800e04f520016003a00d40e2100144278007a
:102cb8000482fb00040242008402780044b5280024
:102cc80004824200140278005486880054868000ea
:102cd8000482e8001442780004437800e50c2100df
:102ce800864a7800548680006302420014427800c5
:102cf80004437800f50c2100864a7800210037004b
:102d08000042eb0004437800c50c2100864a780095
:102d18001c003700d40e210014427800e24f520004
:102d28000e003e00d40e2100144278000482fb00fd
:102d3800040242008402780064b52800048242003c
:102d48001402780054868800548680001442780063
:102d58000482fb00748688000a0037000042eb00fa
:102d680004437800c50c2100864a78000500370026
:102d78000042eb0004437800c50c2100864a780025
:102d8800000000000080fa00000006000200fa00bf
:102d98000042eb0004437800350f2100864a780092
:102da8000042eb0004437800450f2100864a780072
:102db800b40e2100144278007f4262000482fb00b6
:102dc800e10f520010003200e20f520010003200f2
:102dd800e00f52003c003a00ccf0a800a40d2100fe
:102de80014427800e04f520032003200340f2100c4
:102df800144278000414a00004437800350f210021
:102e0800864a780030003700ccf0a8002e00370042
:102e1800ccf0a800f50e21009542780004c8b30054
:102e280004c26200e04f520009003a00f40e21008b
:102e3800144278006f4262000482fb008402420060
:102e4800c40b210004824200140f780008003700e8
:102e5800f40e2100144278006f4262000482fb00e5
:102e680084024200240c210004824200140f7800de
:102e78001e02780094027800040028000482620090
:102e8800e00f52000d0032001e0278009402780014
:102e98000440200004826200e00f52000900320062
:102ea80014c0b30004437800350f2100864a780027
:102eb8000500370000000000030037000000000094
:102ec800010037000000000065868000040820002b
:102ed80004826200e00f520007003200340f210024
:102ee80054868800cc10a80024c0b300044378009e
:102ef800e50c2100864a78000080fa0000000600f0
:102f08000000fa005425800062026200e00f5200bf
:102f180014003200c48580009442900004c8b300b5
:102f280084cf52000e003a0014868000944290002c
:102f380044c8b30084cf520009003a00c485800019
:102f4800c5c0b30015429800c4858000c5858000bf
:102f58001543900005c8b3008542730015429800d8
:102f6800aa24a90004082000542488000080fa003c
:102f7800000006000000fa008284a8000401200076
:102f88005424880014c0b30004437800b50d210010
:102f9800864a78000001eb008000eb005007200013
:102fa800e11207000080fa00000006000000fa00a5
:102fb8000042eb0004437800b50d2100864a7800f2
:102fc8000001eb008000eb0040072000d61207004c
:102fd8008284a90004012000042488000080fa00eb
:102fe800000006000200fa00d4c2b30004437800cf
:102ff800550e2100864a7800c40d2100144278003d
:103008008482fb00b4ff2f0004826200e00f5200ac
:1030180032003a00c40d2100144278000482fb00fb
:103028004222de00044278000482fb00c222dd0056
:103038000420210004824200c4858800c4858000e1
:10304800d4858800a40b2100a50b210095427800a7
:103058000524a200054a7800c485800094027800ff
:1030680004c023008482620004402300848f52003d
:1030780018003a000042eb00044f78000d003700ba
:103088001e4278008482fb00b40e210004824200b4
:10309800c58580009502900095427800054a780021
:1030a800c4858000940290008502e800150298000b
:1030b8001e4fe8001e427800e74f5200f0ff36002e
:1030c800c4858000b50e2100150298000d00070088
:1030d8000a0037005b00070008003700c40d210014
:1030e800144278008482fb00b4ff2f00048262003f
:1030f800e80f520001003a00780007000080fa004b
:10310800000006000000fa000042eb0004437800cb
:10311800850c2100864a78000042eb0004437800c1
:10312800650e2100864a78000042eb0004437800cf
:10313800950e2100864a78000042eb00044378008f
:10314800a50e2100864a78000042eb00044378006f
:10315800e50d2100864a78000042eb000443780020
:10316800950c2100864a7800148680001586800018
:10317800954290000574a10015429800240c210086
:10318800250c2100954278000524a200054a780004
:103198001486800015868000954290000574a10071
:1031a80015429800240c2100250c21009542780036
:1031b8000524a200054a7800d4858000d5858000c2
:1031c800954290000574a100154298000042eb005a
:1031d80004437800c50c2100864a78000002eb0001
:1031e800748688000042eb0004437800250d210016
:1031f800864a7800340d210014427800604262004b
:1032080004437800350d2100864a7800440d2100da
:10321800144278006042620004437800450d2100a2
:10322800864a7800960007000001eb008000eb005a
:10323800300020003c120700d2fc07000080fa0092
:10324800000006000000fa00940c210014427800e7
:10325800e24f520002003a0087fd07001d003700c8
:103268000042eb0004437800950c2100864a780060
:10327800e40d2100144278000404a200e04f52003b
:1032880010003200d485800085c0b300054a78005c
:10329800d4858000b50e210015029800d4858000e1
:1032a800c5c0b30015429800d4858000d58580003c
:1032b8001543900005c8b300854273001542980075
:1032c800040037000042eb0004437800e50d2100bc
:1032d800864a78000080fa00000006000200fa0022
:1032e80014868000140278004e22de0061426200db
:1032f800044f7800240c2100250c21009542780009
:103308000524a200054a780094858000e80f520041
:103318000e003a00d40e2100144278008482fb008b
:10332800f407200004826200b4248800b4248000da
:10333800e00f520003003200040120009485880049
:10334800020037004400200094858800940c210076
:1033580014427800e14f520029003a001486800098
:10336800350f21001502980001fd0700840c21008b
:1033780014427800e24f52000a003a001486800096
:1033880045c0b30015429800148680001586800059
:103398001543900005c8b300854273001542980094
:1033a800350037001e427800e04f52000a003a000c
:1033b8001486800085c4b3001542980014868000e6
:1033c800158680001543900005c8b3008542730038
:1033d80015429800280037001486800085c0b30085
:1033e80015429800148680001586800015439000c9
:1033f80005c8b30085427300154298001e003700c7
:10340800250d21009542780004c8b30004c262006b
:10341800e04f520014003200540d2100144278008d
:103428000482fb00650d2100954278008582fb002f
:10343800c82add0005027200e00f520009003200c0
:10344800540d2100144278000482fb00650d210010
:10345800954278008582fb00c82add0005027200cb
:1034680004000100d2f0a9000042eb0004437800f8
:10347800950c2100864a78000080fa0000000600ba
:103488000000fa00b40e2100144278000446b2008d
:10349800e04f520047003a00c40e21001442780061
:1034a8000482fb00cfa2de00b60020000700200047
:1034b800860f5200878f5a0040003e0004600100ca
:1034c8001c0037001d0037003e0037001b00370086
:1034d8003c0037000600370009003700300037008d
:1034e8000b003700080037001600370022003700ad
:1034f800ccf0a800840020009485880032003700b2
:10350800cdfd0700300037008efd07002e00370084
:10351800440b210054868800cc10a80014c0b300c6
:1035280004437800e50c2100864a7800ccf0a80016
:103538002500370015fe0700230037002400070088
:1035480021003700f40e2100144278008482fb0029
:10355800540b21000482420054868800cc10a80035
:1035680014c0b30004437800e50c2100864a7800b3
:10357800ccf0a80014003700ccf0a800f40e21000d
:10358800144278000483fb00d50e21009542780090
:10359800540b210004024300054a78000a00370052
:1035a8000001eb008000eb00200020005e11070006
:1035b800050037000000000003003700000000008d
:1035c80001003700000000000080fa00000006003b
:1035d8000600fa00d40e210014427800e14f520090
:1035e80013003a00b40e2100144278007f426200b2
:1035f800e04f52000e003a00ccf0a800c40e2100a3
:1036080014427800e34f520005003a0014c0b3009a
:1036180004437800a50d2100864a7800040037008d
:103628000042eb0004437800a50d2100864a78008b
:10363800d40e210014427800e04f5200fd003a00f9
:10364800b40e2100144278007f426200e24f52001b
:10365800f8003a00f40e2100144278006f4262002c
:10366800e04f5200f3003200f40e210014427800bb
:103678006f4262000482fb00e20f5200ed003c0042
:103688009585800004022000848f5200e9003a00ea
:10369800ccf0a800f50e21009542780004c8b300cc
:1036a80004c26200e04f520012003a00f40e2100fa
:1036b800144278006f4262000482fb0084024200d8
:1036c800c40b2100048242001402780014079800f9
:1036d800f40e2100144278006f4262008482fb00dd
:1036e800240e2100048242001442780044479800c6
:1036f80011003700f40e2100144278006f42620076
:103708000482fb0084024200240c2100048242004f
:103718001402780014079800f40e2100144278006f
:103728006f4262008482fb00f40d21000482420093
:1037380014427800444798004e429000614262006b
:10374800e04f520007003a000e82e8008e82e8003f
:1037580015437800b5cfb30085426300054a780069
:10376800050037000e82e8008e82e8009542780056
:103778000524a000054a7800f50e2100954278003e
:1037880004c8b30004c26200e04f52000a003a00c5
:10379800f40e2100144278006f4262000482fb009c
:1037a8009e02900004034200c40b2100040243005f
:1037b800050a780009003700f40e21001442780049
:1037c8006f4262000482fb009e02900004034200e4
:1037d800240c210004024300050a7800c40e2100cd
:1037e80014427800e34f52002b003a001e0290006a
:1037f800940278000400280004826200e00f52005e
:1038080019003200f50e21009542780004c8b30073
:1038180004c26200e04f52000a003a00f40e210090
:10382800144278006f4262008482fb00240e21005b
:1038380084824200154278000410a000844a78006f
:1038480009003700f40e2100144278006f4262002c
:103858008482fb00f40d2100848242001542780026
:103868000410a000844a78001e0290009e02900076
:10387800954290000524a000154298001e02900071
:103888009e0290001543900005c8b300854273005e
:1038980015429800670037000e82e8008e82e80023
:1038a800954278000524a200054a78001e0290007f
:1038b800940278000400280004826200e00f52009d
:1038c800110032001e0290009e0290009542900066
:1038d8000574a100154298001e0290009e029000f7
:1038e8001543900005c4b300854273001542980043
:1038f8001e02900022002000840078005000200062
:1039080089100700060037001e0290009e029000f2
:103918001543900005c4b300854273001542980012
:103928000e82e8008e82e800954278000524a20005
:10393800054a78004e42900062426200e04f520011
:1039480006003a001e029000940278000400280045
:1039580004826200e00f520024003200f50e2100bc
:103968009542780004c8b30004c26200e04f5200d8
:103978000a003a00f40e2100144278006f426200f7
:103988008482fb00240e21008482420015427800c4
:103998000410a100844a780009003700f40e2100c1
:1039a800144278006f4262008482fb00f40d21000b
:1039b80084824200154278000410a100844a7800ed
:1039c8001e0290009e02900095429000b543b200fe
:1039d800154298001e029000220020008400780002
:1039e8005000200050100700050037001e0290000c
:1039f8009e02900095429000b543b200154298008f
:103a0800a54a2000f40e2100144278006f4262009b
:103a18000482fb0004024200048f42001e02780068
:103a280094427800d4cfb30084c262001e027800aa
:103a3800054a78000080fa00000006000400fa0039
:103a4800100798000002eb00040f7800040037000c
:103a58001e0290000402e800140798001e0fe800f8
:103a68001e02900014427800e04f5200f8ff3a001e
:103a78001e027800040078000080fa0000000600aa
:103a88000200fa00000f7800050037001e027800d7
:103a9800144278001e0fe800044078006111070006
:103aa8001e02780014427800e04f5200f7ff3a00f7
:103ab8000080fa00000006000400fa00000f7800f9
:103ac8001107980060952800edff0700009928006d
:103ad800ebff0700e09a2800e9ff0700109d280087
:103ae800e7ff0700a09f2800e5ff0700f0a12800d6
:103af800e3ff07000080fa00000006000400fa0057
:103b0800000f780011079800040037001e0fe80026
:103b18001e0290000402e800140798001e027800b4
:103b280014427800e04f5200060032001e0278006e
:103b3800944278001e0290001442780084cf52000c
:103b4800f2ff32001e0290009442780004c2b300d3
:103b580084cf5200040032001e0290001442780004
:103b6800e04f520008003a001e0278001442780024
:103b7800e04f520002003a00140020000300370012
:103b880024002000010037003400200004007800e1
:103b98000080fa00000006000c00fa0040079800b8
:103ba800510798005e029000140f78000002eb00a5
:103bb80024079800010037001e0fe8001e02780055
:103bc8009442780004c2b30084cf5200faff320056
:103bd8001e02780014427800e04f520004003a00b8
:103be8005e0290001e0a78000002eb005b003700be
:103bf8004e029000940278001507980035003700af
:103c08001e029000140290009e00780004007800c4
:103c1800baff070000027800340798003e029000bf
:103c2800e10f52001b003a00010037001e0fe800a8
:103c38001e02780014427800e04f5200080032005b
:103c48001e0278009442780004c2b30084cf520068
:103c5800f6ff3a00030037001e0fe80001003700a6
:103c6800000000001e0278009442780004c2b300ed
:103c780084cf5200f8ff32005e0290001e0a7800de
:103c88004e0290009e029000050a78004400200031
:103c9800320037003e029000e20f52000a003a005c
:103ca8002e029000e00f5200050032004e029000f4
:103cb800ae029000050a7800540020002700370063
:103cc8001e029000240798001e029000e402900053
:103cd800150798001e029000e00f5200c8ff3a0036
:103ce8002e029000e00f52001b0032000100370046
:103cf8001e0fe8001e02780014427800e04f5200c0
:103d0800080032001e0278009442780004c2b30012
:103d180084cf5200f6ff3a00030037001e0fe80078
:103d280001003700000000001e027800944278006d
:103d380004c2b30084cf5200f8ff32004e02900054
:103d4800ae029000050a78005e0290001e0a780014
:103d580044002000010037003400200004007800ef
:103d68000080fa00000006000400fa00000f780046
:103d7800110798000b003700e47b80009e0290003a
:103d880015437800a5f3200085024200864a780092
:103d98000402e800e47b88001e0290000402e800a8
:103da800140798001e02900014427800e04f520059
:103db800f1ff3a00e57b8000a4f320000482420072
:103dc8008042eb00054a78001e027800047c8800d7
:103dd8000080fa00000006001000fa006007980052
:103de800710798000002eb00040f78000002eb0056
:103df800140798000b0037001e029000fe02900086
:103e080004824200944278001e03900064ef200070
:103e180004024300054a78001e0290000402e800ec
:103e2800140798009e029000f4032000848f52002b
:103e3800f1ff340064ef2000740798006e029000d0
:103e4800940290001e027800040242000402470017
:103e580064024200050a78001e0fe8002c003700b3
:103e68007e0290000402e800740798000100370001
:103e7800000000007e0290009442780004c2b30063
:103e880084cf5200f6ff32007e0290001442780080
:103e9800e04f5200260032001e0278000402420061
:103ea8000402470064024200fe029000050a7800fe
:103eb8001e0fe800030037007e0290000402e800ad
:103ec800740798007e0290009442780004c2b30000
:103ed80084cf5200040032007e0290001442780021
:103ee800e04f5200f4ff3a007e029000144278003e
:103ef800e04f5200100032007e0290008042eb003a
:103f0800054a78007e0290000402e80074079800d1
:103f18007e02900014427800e04f52000700320001
:103f28001e027800e30f5200d1ff3400030037006f
:103f38000000000001003700000000006e02900041
:103f480044029000e00f5200090032006e02900017
:103f580054029000147c88006e029000c402900005
:103f680064024700840078001e0078000500010004
:103f78000080fa00000006000800fa0020079800f8
:103f8800310798003e029000140798008e82e800de
:103f9800640247008500780004007800fefe0700f0
:103fa80000027800040f78001e027800e40f520027
:103fb8001e003a002e029000e00f52001900320055
:103fc8002e02900074029000e00f520007003a00a1
:103fd8009e0290002e029000850078000400780070
:103fe8007dff07000002eb00290037001e02900049
:103ff80014427800e04f520006003a002e0290006a
:10400800be0090000400780057ff07000002eb0094
:104018001f0037002e0290007402900024079800b9
:10402800daff37000002eb00190037001e027800a3
:10403800e50f520009003a0060a4280090fe07002e
:104048001e029000040078008dfe070030952800bd
:104058008bfe07000002eb000d0037001e027800ff
:10406800e30f520009003a0020a5280084fe07004b
:104078001e0290000400780081fe07003095280099
:104088007ffe07000002eb00010037000002eb0092
:10409800040078000080fa00000006000800fa001a
:1040a800300798000002eb001407980030952800ac
:1040b80073fe07003e029000040f780011003700dd
:1040c8001e02780014029000040078005bfe0700ce
:1040d800000278009e029000850f5200060034000e
:1040e8001e027800140290000400780053fe0700b6
:1040f80000027800140798001e027800e40290007d
:10410800050f78001e027800e00f5200ecff3a001d
:104118003e029000040f7800220037001e0278004b
:1041280024029000e00f52001b0032001e027800ab
:10413800140290000400780051fe07001e02780067
:1041480014029000040078003cfe0700000278008a
:10415800240798000500370000c2b300b10f07001c
:104168002e0290000402e800240798001e02900026
:104178008482e8002e029000848f5200f6ff3c00f3
:104188001e02780024029000040078003cfe07001c
:10419800309528003afe07001e027800e4029000dd
:1041a800050f78001e027800e00f5200dbff3a008e
:1041b8000080fa00000006000800fa0020079800b6
:1041c800310798003e029000140798008e82e8009c
:1041d8006402470085007800040078006efe07003e
:1041e80000027800040f78001e027800e40f5200e5
:1041f8002f003a001e02900014427800e04f52004f
:104208002b003a002e02900074029000e00f52003a
:10421800060032002e02900074029000040078001c
:104228009eff07000002eb00500037001e029000be
:104238000402e9009442780004c2b30084cf52001b
:104248000200320000c2b300760f07002e02900071
:1042580034029000e00f5200040032002e02900059
:10426800340290000400780005fe0700d0a528005d
:1042780003fe07002e02900024029000e00f520077
:10428800050032002e0290002402900004007800fd
:10429800fbfd07000200370000a62800f8fd070014
:1042a80030952800f6fd07000002eb002f003700cc
:1042b8001e027800e40f520008003a001e02900027
:1042c80014427800e04f5200040032002e029000a1
:1042d8007402900024079800bcff37001e02780083
:1042e800e50f520009003a0020a72800e4fd070066
:1042f8001e02900004007800e1fd070030952800b8
:10430800dffd07000002eb00180037001e027800ee
:10431800e30f520009003a00f0a72800d8fd070073
:104328001e02900004007800d5fd07003095280093
:10433800d3fd07000002eb000c003700047c80006e
:10434800e00f520005003200047c800074029000e7
:104358000400780051ff070003003700948b8000a9
:10436800040078004dff07000002eb00040078000d
:104378000080fa00000006001a00fa00300f9800ca
:10438800410f98004e0a9000240f98000404200062
:10439800040f7800ae0a900065079800f402470001
:1043a800760247008500780004007800fafd0700cf
:1043b80000027800740798000002eb0014079800c8
:1043c800030037001e0290000402e800140798005a
:1043d8001e029000ee02900004824200144278000f
:1043e800e04f5200070032001e029000ee029000db
:1043f800048242009442780004c2b30084cf520081
:10440800f0ff3a007e029000e40f520008003a00e4
:104418002e0a900014427800e04f52000400320047
:104428003e0a900074029000340f9800c8003700cc
:104438007e029000e50f5200060032007e029000d6
:10444800e40f5200030032007e029000e00f520099
:10445800bd003a000002eb00440798000002eb00a0
:10446800540798003e0a90003407980072003700fd
:104478003e02900014029000ee00900004007800c4
:104488009efd070000027800040f98000e0a9000b5
:10449800e10f520032003a009e0290002507980072
:1044a8000a0037003e0a9000940290002e02900005
:1044b800048242001442780004407800cc010700ce
:1044c8002e0290000402e800240798003e0a90009b
:1044d800940290002e029000048242001442780058
:1044e800e04f5200efff3a002e0a90000402e90064
:1044f8009442780004c2b30084cf52000200320014
:1045080000c2b300ba0107003e0a9000740290008e
:10451800e00f52000e003a003e0a9000340290006c
:10452800e00f5200080032003e0a9000340290006a
:104538000400780052fd07003095280050fd070060
:1045480014002000830037000002eb0081003700d0
:104558003e0a900074029000340f9800390037002a
:104568000e0a9000e20f520030003a005e029000fe
:104578000402e800540798004e029000e00f520031
:1045880009003a003e029000440798003e0290005d
:10459800140290000400780028fd0700000278004b
:1045a800040f7800210037009e029000250798002c
:1045b800030037002e0290000402e8002407980048
:1045c8003e029000940290002e0290000482420065
:1045d80014427800e04f52000f0032002e02900083
:1045e8009e0f52000c003d003e0290009402900085
:1045f8002e02900004824200944278004e029000fd
:10460800140390002e029000040243001442780024
:1046180084cf5200e7ff32002e0290009e0f520016
:1046280002003d002e029000040f78003e02900028
:10463800e4029000350798003e029000e00f520017
:104648008bff3a003e029000e00f5200010032005a
:104658003f0037004e029000e00f52003800320051
:104668001e0290009e0f520020003a00309528004c
:1046780003fd07003e0a9000340798001600370033
:104688003e02900014029000ee00900004007800b2
:104698001afd070000027800140f98001e0a900007
:1046a800e10f5200030032001e0a9000e20f520090
:1046b80006003a003e0290001402900004007800c0
:1046c800effc070030952800edfc07003e02900043
:1046d800e4029000350798003e029000e00f520077
:1046e800e7ff3a00140020001a0037001e0290006d
:1046f800240798000a0037004e02900094029000a8
:104708002e0290000482420014427800044078008f
:10471800370107002e0290000402e80024079800e1
:104728002e0290009e0f5200f3ff35005e029000ab
:10473800e10f520002003a0000c2b3002c0107004a
:104748000002eb00030037000002eb000100370015
:104758000eff3700040078000080fa000000060011
:104768000000fa0030952800c5fc0700c01621009b
:10477800c3fc0700e47b8000e00f52000400320015
:10478800a0f32000befc0700b0a82800bcfc07006e
:104798000002eb00f47b88000080fa0000000600ad
:1047a8000e00fa00881f7800404f980026df20008e
:1047b800c4798000840278001404200004aab90097
:1047c80004027800040f43004e4a9000ea4f52005a
:1047d800030032004e4a9000ed4f52002f003a007d
:1047e80030952800a6fc0700010037001e0fe800de
:1047f8001e02780014427800e04f52000500320093
:104808001e0278009442780004c2b30084cf52009c
:10481800f6ff32001e02780014427800e04f520082
:104828001c003200047c8000e00f520003003200bc
:10483800047c80007402900001003700948b800093
:10484800540798009e0078005e009000cafd07009b
:10485800c47980008402e8004400200011000900a7
:104868008402d80001027800c47988000002eb00b5
:10487800f47b8800c57980001404200004aab900dc
:104888008402780024df2000048242008042eb008a
:10489800054a7800b2ff0700d2003700ce4a9000e0
:1048a800f4c2b30084cf52000a003a00548b80004f
:1048b800e00f5200020032004e489000d90d070068
:1048c8000002eb00e47b88000002eb00047c880017
:1048d800c40037004e4a9000e84f520004003200ee
:1048e800ce4a9000f4c7b30084cf52000d003a00be
:1048f800f47b8000e00f5200ba003400e0a82800e2
:104908005ffc0700f47b80000402e900f47b880068
:10491800f47b80001e0242008042eb00054a7800ca
:10492800b00037004e4a9000f04f520031003a0074
:10493800c4798000e302420044002000110009000d
:104948008402d80001027800140798009e029000a3
:104958001404200004aab9008402780024df20008f
:104968000482420014427800e04f52009d00320059
:1049780026df20009e0290001404200004aab9003b
:1049880004027800040f430002003700e0a8280062
:104998003bfc0700f87b80001e00780027fc07001e
:1049a8008002780014c0b300850f540001003c0059
:1049b8000042eb008802e900f57b8800e04f5200d6
:1049c800f2ff3a00d0c0b300960d070064ff07005d
:1049d8001e0078002afc07001e00780017fc07005c
:1049e80000027800f47b88001e029000c4798800d9
:1049f8007c0037004e4a9000ee4f520031003a00da
:104a0800c47980008402e8004400200011000900f5
:104a18008402d8000102780024079800ae029000b2
:104a28001404200004aab9008402780024df2000be
:104a38000482420014427800e04f520069003200bc
:104a480026df2000ae0290001404200004aab9005a
:104a580004027800040f430002003700e0a8280091
:104a680007fc0700f87b80001e007800f3fb0700b6
:104a78008002780014c0b300850f540001003c0088
:104a88000042eb008802e900f57b8800e04f520005
:104a9800f2ff3a00d0c0b300620d070030ff0700f4
:104aa8001e007800f6fb07001e007800e3fb0700f5
:104ab80000027800f47b88002e029000c4798800f8
:104ac80048003700ce4a9000f4c3b30084cf5200a8
:104ad80013003a00047c8000e00f5200030032000b
:104ae800047c80007402900001003700948b8000e1
:104af800340798009e0078003e009000aefd070045
:104b080017ff07001e007800ddfb07001e00780075
:104b1800cafb070000027800f47b880031003700e8
:104b28004e4a9000e94f520004003200ce4a9000ed
:104b380014c2b30084cf520016003a00047c8000ef
:104b4800e00f520003003200047c800074029000e1
:104b580001003700948b8000440798009e0078007d
:104b68004e00900004fe070000027800e00f52009b
:104b780003003200fafe07001e007800c0fb0700a1
:104b88001e007800adfb070000027800f47b880067
:104b980014003700f57b8000f4032000848f520056
:104ba80010003c00548b8000e00f520002003200dd
:104bb8004e4890001b0d0700f47b800084027800ab
:104bc8009e8242004e4b9000864a78000402e8001c
:104bd800f47b8800f47b80001e0242008042eb00d8
:104be800054a78004f0478000080fa0000000600ab
:104bf8000200fa00004f78001e407800e8fe070027
:104c08000080fa00000006000400fa00100798006f
:104c18001e02900014027800e00f520019003200c2
:104c28001e02900014027800f4029000050f78002c
:104c38001e027800e00f520009003a001e029000a0
:104c4800140278009e029000750298002000370038
:104c58001e027800e4029000050f7800010037007a
:104c6800000000001e02780064029000e00f52006d
:104c7800f7ff3a001e0278009e0290006502980035
:104c880013003700948b8000e00f520003003a00b5
:104c98001e029000948b88000d003700958b8000d1
:104ca800050f7800030037001e027800e402900028
:104cb800050f78001e02780064029000e00f520091
:104cc800f9ff3a001e0278009e02900065029800e3
:104cd8000080fa00000006000400fa00100798009f
:104ce8000002eb00040f7800080037001e0278006d
:104cf8009e0290000482420094427800c41621006b
:104d08001e024200054a78001e0fe8001e027800c5
:104d18009e0290000482420014427800e04f520044
:104d2800030032001e027800e30f5200efff340048
:104d3800c41621001e0242008042eb00054a78009a
:104d4800d0c0b300aaff07000080fa0000000600e8
:104d58000000fa00147c8000040078000080fa004b
:104d6800000006000800fa00300798000002eb0077
:104d7800040f78006022b8001407980025079800ef
:104d88003e02900014427800e04f520002003a00c0
:104d98006022b800810037003e02900094427800fb
:104da80004c3b30084cf520073003a003e0290005f
:104db8000402e8009442780084c7b30084cf52000c
:104dc8006f003a0014002000040f78003e029000a3
:104dd8000482e800340798006a0037001e02780051
:104de800e00f5200090032001e039000ae0390004d
:104df800443add00cc32de00850272004432dd0028
:104e08001407980025079800100037002e0290001c
:104e18006a22b900040378001e0290006022b900db
:104e280004027800040343009e029000a4002000be
:104e3800042ab80005034300860278001407980086
:104e48002507980014079800250798003e0290004f
:104e580094427800f4c2b30084cf520011003600a7
:104e68003e0290009442780094c3b30084cf52006d
:104e78000c003e003e029000144278000482fb00c1
:104e88000403b100cfa2de001e039000ae03900021
:104e98000602420087824a001407980025079800f6
:104ea800310037001e027800e00f52001600320071
:104eb8003e0290009442780004c6b30084cf5200aa
:104ec800110036003e0290009442780064c6b30098
:104ed80084cf52000c003e003e029000144278003d
:104ee8000482fb007405b100cfa2de001e0390000f
:104ef800ae0390000602420087824a001407980019
:104f080025079800180037001e027800e00f5200ad
:104f1800200032003e0290009442780004c4b3009e
:104f280084cf52001b0036003e0290009442780065
:104f380064c4b30084cf520016003e003e029000c5
:104f4800144278000482fb007403b100cfa2de0093
:104f58001e039000ae0390000602420087824a00ba
:104f680014079800250798003e0290000402e80004
:104f780034079800030037000000000001003700e4
:104f8800000000003e02900014427800e04f5200fa
:104f980092ff3a001e029000ae0290000400be008c
:104fa8000080fa00000006000200fa00004f7800b6
:104fb8001e427800ea4f520002003a00d0c0b30007
:104fc800f9ff0700c48c8000e00f52000500320092
:104fd800c48c80001e4a78000402e800c48c880053
:104fe80006003700b48c8000e00f52000300320046
:104ff800b48c80001e407800040001000080fa0094
:10500800000006000200fa00000f780005003700d3
:105018001e027800144278001e0fe8000440780051
:10502800e1ff07001e02780014427800e04f5200aa
:10503800f7ff3a000080fa00000006000600fa00b8
:105048001007980021079800b48c8000040f78009e
:105058001e029000b48c8800070037002e029000d2
:1050680014427800ae0290008502e80025079800f7
:1050780004407800ccff07002e029000144278000c
:10508800e04f5200f5ff3a001e027800b48c880009
:105098000080fa00000006002600fa0010179800a9
:1050a800211798001e12900094427800654f9800ce
:1050b8001e1290000402e800141798006e4a90002f
:1050c800e04f520077013200ee4a900054c2b3001c
:1050d80084cf5200030032006e489000b2ff0700f0
:1050e8006f0137000002eb00440798001e12900081
:1050f80014437800664f98001e1290000402e800de
:1051080014179800ee4a900004c3b30084cf5200ed
:1051180009003a0014002000440798001e1290006d
:1051280094427800654f98001e1290000402e8002f
:10513800141798000c003700ee4a9000d4c2b30050
:1051480084cf520008003a00240020004407980049
:105158001e12900014437800664f98001e129000ab
:105168000402e800141798000002eb0034079800c6
:105178000e0037003e0290006a22b90084027800cf
:105188006e4a90000482fb00048242000403b100ce
:10519800340798001e12900094427800654f9800da
:1051a8001e1290000402e80014179800ee4a9000be
:1051b800f4c2b30084cf520004003600ee4a9000d7
:1051c80094c3b30084cf5200eaff3600ee4a900041
:1051d800c4c6b30084cf520004003200ee4a9000e7
:1051e800c4c4b30084cf520009003a004e029000b4
:1051f8000420a000440798001e1290001443780071
:10520800664f98001e1290000402e80014179800d8
:105218006e4a9000e04f5200240132006e4a90001e
:10522800744f9800fe4a900004c6b30084cf520021
:1052380004003600fe4a900004ceb30004c24200c7
:10524800744f98007e4a90000482fb006123b900e5
:10525800e4fb2f00f5ff2f000602420087824a0078
:105268006601200007002000860f5200878f5a0031
:1052780062003e0004600100540037004a00370015
:10528800580037005d0037005c0037005b003700ce
:105298005a003700590037005800370057003700c8
:1052a8005600370055003700540037004a003700d1
:1052b8005200370051003700500037000500370012
:1052c8004e003700470037004c0037004b003700ce
:1052d800470037002e1290000482e9002417980036
:1052e8002e12900094027800050f98000002eb003f
:1052f80024079800030037002e0290000402e800fb
:10530800240798008e0a90002e0290000482420022
:1053180014427800e04f5200f7ff3a0002003700cd
:1053280000c2b30020ff07004e0290006202620034
:10533800e00f52000b003a0014c0b3002e03900097
:10534800be029000850f5300010039000042eb00b7
:10535800ae0290008502e80025079800e04f520051
:10536800efff3a000e08900026ff07000200370002
:1053780000c2b3000cff070014c0b3002e03900056
:10538800be029000850f5300010039000042eb0077
:10539800ae0290008502e80025079800e04f520011
:1053a800f3ff3a00be0037002e1290000482e90095
:1053b800241798002e1290001402780004427800f6
:1053c80004407800f8fe0700b500370024002000ec
:1053d800040f78000c00370084002000040f7800c8
:1053e80009003700a4002000040f780006003700e9
:1053f80004012000040f7800030037006e48900075
:10540800e9fe0700a60037004e0290006402620021
:10541800e00f5200060032002e1290006402520083
:10542800241798002e1290001402be0011003700b5
:10543800fe4a900044c4b30084cf520007003a00eb
:105448002e1290000482e900241798002e12900072
:1054580014027800cfa2de00060037002e1290005a
:105468000482e900241798002e1290001402780094
:10547800050020005407980065079800fe4a900030
:1054880044c4b30084cf52000e003a005e0290007c
:10549800ee029000e00f5200e08f5a0009003d0034
:1054a8005e029000ee02900060021200e0821a0094
:1054b80054079800650798004e0290000430a00039
:1054c800440798000002eb00140798001e027800b9
:1054d800050020005e039000ee0390000401be006a
:1054e8000600be00b1ee07000002be00744f98002f
:1054f8001e027800050020000401be005e00900036
:10550800ee00900099ee07000002be0054079800d4
:10551800650798007e4a9000e94f52000a0036005d
:10552800ee4a900084c7b30084cf520002003a00cc
:1055380074c2b3000100370074c0b300fe4a900083
:1055480004c24200744f98007e4a900006c3b3001c
:1055580086424200720347001e0290000402430084
:10556800054a78001e0290000402e800140798001b
:105578005e029000ee029000e00f5200e08f5a00a9
:10558800030032001e029000ef0f5200cfff3600da
:105598004e02900068026200e00f520008003200dc
:1055a800f20247001e02900004824200d5c2b300f6
:1055b800054a78001e0290000402e80014079800cb
:1055c8001e029000240798004e02900061026200bb
:1055d80004427800e04f52000200320004c3b300d6
:1055e8000100370004c2b300744f9800020037006e
:1055f8007e4890006cfe07004e0290006202620036
:10560800e00f52000b003a0014c0b3002e039000c4
:10561800be029000850f5300010039000042eb00e4
:10562800ae0290008502e80025079800e04f52007e
:10563800efff3a001e0290000402e90014079800e8
:10564800f20247001e0290000482420014427800d1
:105658000440780054fe07001e029000e00f52003c
:10566800f4ff3a000200370000c2b3004efe070004
:1056780014c0b3002e039000be029000850f5300a3
:10568800010039000042eb00ae0290008502e800fc
:1056980025079800e04f5200f3ff3a0081fe3700db
:1056a80080fe370000000000010037000000000005
:1056b8000080fa00000006000200fa0068025700a5
:1056c800040f78009e0078004eb8970072fe07001d
:1056d8000080fa00000006000400fa001007980095
:1056e8001e029000c48c880068025700040f7800de
:1056f8009e0078004eb8970067fe0700c48c8000b3
:105708008042eb00054a78000002eb00c48c880058
:105718000080fa00000006000600fa002007980042
:10572800b48c8000040f78002e029000b48c88009e
:1057380068025700140798009e0090004eb8970022
:1057480055fe07001e027800b48c88000080fa001d
:10575800000006001200fa0040079800520798005f
:105768006307980071079800040f98005e02900084
:10577800ee029000849fbe0084bb2800841f78003e
:10578800cdff0700e68757000e0a9000e20f52008f
:1057980038003200e40f520049003200e10f520095
:1057a8005a003a004e029000340798000002eb00bd
:1057b800040f78000b0037001e027800be0290002c
:1057c80004824200144278000482fb00841f78009f
:1057d800f4bb2800841f7800b7ff0700e487570050
:1057e8001e0fe8007e0290009e027800848f52000f
:1057f800f1ff350000c2b300ebfd07000002eb002b
:10580800040f7800160037001e027800be029000d0
:105818000482420014427800ff4f52000c00360008
:105828001e027800be029000048242009442780072
:10583800e4c7b30084cf520005003e001e02780082
:10584800be02900004824200144278000100370032
:10585800e4c2b30004407800d3fd07001e0fe8003f
:105868007e0290009e027800848f5200e6ff350089
:10587800260037004e029000140798001e02900080
:10588800140278009e0290008582e80015079800af
:10589800841f780054bc2800841f780086ff070006
:1058a800e48757007e0290000402e900740798001c
:1058b8007e029000e00f5200f0ff3a00130037001c
:1058c8004e029000240798002e0290001402be0099
:1058d8002e0390006403430026079800849fbe00af
:1058e800b4bc2800841f780073ff0700e6875700c0
:1058f8007e0290000402e900740798007e0290007e
:10590800e00f5200f0ff3a0000000000a0c0b30012
:10591800a5fd07000080fa00000006000800fa0054
:105928002007980031079800d48c8000e00f5200bf
:1059380002003a000002eb003c0037000002eb00d6
:10594800040f780003003700000000000100370052
:1059580000000000d48c80000400010000427800a0
:105968000482fb00140798001e029000e00f52000a
:1059780002003a000002eb002c0037001e029000e3
:10598800ed0f520009003a001e027800ae029000a6
:10599800048242008042eb00054a7800a0c0b300b0
:1059a80081fd070014002000200037001e0290002f
:1059b800e80f52000a003a001e027800e00f520079
:1059c800070032001e0fe9001e0290000442780012
:1059d8000440780074fd070000000000ddff370078
:1059e8001e029000ff0f5200d7ff34003e029000c5
:1059f8000402e9009e0f5200d5ff34001e02780011
:105a0800ae029000048242009e0290008542780017
:105a1800054a78001e0fe8001e0290000442780034
:105a28000440780060fd0700caff370004007800d2
:105a38000080fa00000006000a00fa00200798001b
:105a48003107980042079800d48c8000040f780032
:105a58002e029000d48c8800ce0090003e0090006a
:105a6800aeff070000027800140798001e027800b5
:105a7800d48c88001e029000040078000080fa0090
:105a8800000006000c00fa00400798005107980033
:105a98000042eb00644798005e0390006022b80063
:105aa800048bbe00050037004e02900014027800f7
